{
    "contractName": "Upload",
    "abi": [
        {
            "inputs": [
                {
                    "internalType": "address",
                    "name": "_user",
                    "type": "address"
                },
                {
                    "internalType": "string",
                    "name": "url",
                    "type": "string"
                }
            ],
            "name": "add",
            "outputs": [],
            "stateMutability": "nonpayable",
            "type": "function"
        },
        {
            "inputs": [
                {
                    "internalType": "address",
                    "name": "user",
                    "type": "address"
                }
            ],
            "name": "allow",
            "outputs": [],
            "stateMutability": "nonpayable",
            "type": "function"
        },
        {
            "inputs": [
                {
                    "internalType": "address",
                    "name": "user",
                    "type": "address"
                }
            ],
            "name": "disallow",
            "outputs": [],
            "stateMutability": "nonpayable",
            "type": "function"
        },
        {
            "inputs": [
                {
                    "internalType": "address",
                    "name": "_user",
                    "type": "address"
                }
            ],
            "name": "display",
            "outputs": [
                {
                    "internalType": "string[]",
                    "name": "",
                    "type": "string[]"
                }
            ],
            "stateMutability": "view",
            "type": "function"
        },
        {
            "inputs": [
                {
                    "internalType": "address",
                    "name": "_account",
                    "type": "address"
                }
            ],
            "name": "retrieveAccountHash",
            "outputs": [
                {
                    "internalType": "bytes32",
                    "name": "",
                    "type": "bytes32"
                }
            ],
            "stateMutability": "view",
            "type": "function"
        },
        {
            "inputs": [],
            "name": "shareAccess",
            "outputs": [
                {
                    "components": [
                        {
                            "internalType": "address",
                            "name": "user",
                            "type": "address"
                        },
                        {
                            "internalType": "bool",
                            "name": "access",
                            "type": "bool"
                        }
                    ],
                    "internalType": "struct Upload.Access[]",
                    "name": "",
                    "type": "tuple[]"
                }
            ],
            "stateMutability": "view",
            "type": "function"
        },
        {
            "inputs": [
                {
                    "internalType": "address",
                    "name": "_user",
                    "type": "address"
                },
                {
                    "internalType": "string",
                    "name": "url",
                    "type": "string"
                }
            ],
            "name": "shareImage",
            "outputs": [],
            "stateMutability": "nonpayable",
            "type": "function"
        },
        {
            "inputs": [
                {
                    "internalType": "bytes32",
                    "name": "_hash",
                    "type": "bytes32"
                }
            ],
            "name": "storeAccountHash",
            "outputs": [],
            "stateMutability": "nonpayable",
            "type": "function"
        }
    ],
    "bytecode": "608060405234801561001057600080fd5b50610ecd806100206000396000f3fe608060405234801561001057600080fd5b50600436106100885760003560e01c8063a9ed9cb81161005b578063a9ed9cb814610111578063bc8bef8114610124578063eb39113f14610139578063ff9913e81461015957600080fd5b80630fdef7291461008d5780631d3bbe84146100c957806324ee6ae5146100eb57806336d6da55146100fe575b600080fd5b6100b661009b366004610a75565b6001600160a01b031660009081526005602052604090205490565b6040519081526020015b60405180910390f35b6100e96100d7366004610a97565b33600090815260056020526040902055565b005b6100e96100f9366004610ac6565b61016c565b6100e961010c366004610ac6565b6101d6565b6100e961011f366004610a75565b61020b565b61012c61038c565b6040516100c09190610b88565b61014c610147366004610a75565b61040f565b6040516100c09190610c06565b6100e9610167366004610a75565b61082c565b3360009081526001602081815260408084206001600160a01b03871685528252808420805460ff19168417905560049091529182902091519091906101b2908490610c80565b908152604051908190036020019020805491151560ff199092169190911790555050565b6001600160a01b038216600090815260208181526040822080546001810182559083529120016102068282610d24565b505050565b3360009081526001602090815260408083206001600160a01b03851684529091528120805460ff191690555b336000908152600260205260409020548110156102ee5733600090815260026020526040902080546001600160a01b03841691908390811061027b5761027b610de4565b6000918252602090912001546001600160a01b0316036102dc573360009081526002602052604081208054839081106102b6576102b6610de4565b60009182526020909120018054911515600160a01b0260ff60a01b199092169190911790555b806102e681610dfa565b915050610237565b5060005b33600090815260208190526040902054811015610388576001600160a01b038216600090815260046020908152604080832033845291839052822080548490811061033f5761033f610de4565b906000526020600020016040516103569190610e21565b908152604051908190036020019020805491151560ff199092169190911790558061038081610dfa565b9150506102f2565b5050565b336000908152600260209081526040808320805482518185028101850190935280835260609492939192909184015b8282101561040657600084815260209081902060408051808201909152908401546001600160a01b0381168252600160a01b900460ff161515818301528252600190920191016103bb565b50505050905090565b60606001600160a01b03821633148061044b57506001600160a01b038216600090815260016020908152604080832033845290915290205460ff165b6104935760405162461bcd60e51b8152602060048201526015602482015274596f7520646f6e277420686176652061636365737360581b604482015260640160405180910390fd5b336001600160a01b0383160361058b576001600160a01b03821660009081526020818152604080832080548251818502810185019093528083529193909284015b828210156105805783829060005260206000200180546104f390610c9c565b80601f016020809104026020016040519081016040528092919081815260200182805461051f90610c9c565b801561056c5780601f106105415761010080835404028352916020019161056c565b820191906000526020600020905b81548152906001019060200180831161054f57829003601f168201915b5050505050815260200190600101906104d4565b505050509050919050565b6001600160a01b03821660009081526020819052604081205467ffffffffffffffff8111156105bc576105bc610ab0565b6040519080825280602002602001820160405280156105ef57816020015b60608152602001906001900390816105da5790505b5090506000805b6001600160a01b038516600090815260208190526040902054811015610777573360009081526004602090815260408083206001600160a01b03891684529183905290912080548390811061064d5761064d610de4565b906000526020600020016040516106649190610e21565b9081526040519081900360200190205460ff1615610765576001600160a01b03851660009081526020819052604090208054829081106106a6576106a6610de4565b9060005260206000200180546106bb90610c9c565b80601f01602080910402602001604051908101604052809291908181526020018280546106e790610c9c565b80156107345780601f1061070957610100808354040283529160200191610734565b820191906000526020600020905b81548152906001019060200180831161071757829003601f168201915b505050505083838151811061074b5761074b610de4565b6020026020010181905250818061076190610dfa565b9250505b8061076f81610dfa565b9150506105f6565b5060008167ffffffffffffffff81111561079357610793610ab0565b6040519080825280602002602001820160405280156107c657816020015b60608152602001906001900390816107b15790505b50905060005b8281101561081e578381815181106107e6576107e6610de4565b602002602001015182828151811061080057610800610de4565b6020026020010181905250808061081690610dfa565b9150506107cc565b50949350505050565b919050565b3360008181526001602081815260408084206001600160a01b038716808652908352818520805460ff19169094179093559383526003815283832091835252205460ff16156109395760005b336000908152600260205260409020548110156109335733600090815260026020526040902080546001600160a01b0384169190839081106108bc576108bc610de4565b6000918252602090912001546001600160a01b03160361092157336000908152600260205260409020805460019190839081106108fb576108fb610de4565b60009182526020909120018054911515600160a01b0260ff60a01b199092169190911790555b8061092b81610dfa565b915050610878565b506109bf565b336000818152600260209081526040808320815180830183526001600160a01b03878116808352600183870181815285548083018755958952878920945194909501805495511515600160a01b026001600160a81b03199096169490931693909317939093179055948452600383528184209084529091529020805460ff191690911790555b60005b33600090815260208190526040902054811015610388576001600160a01b0382166000908152600460209081526040808320338452918390529091208054600192919084908110610a1557610a15610de4565b90600052602060002001604051610a2c9190610e21565b908152604051908190036020019020805491151560ff1990921691909117905580610a5681610dfa565b9150506109c2565b80356001600160a01b038116811461082757600080fd5b600060208284031215610a8757600080fd5b610a9082610a5e565b9392505050565b600060208284031215610aa957600080fd5b5035919050565b634e487b7160e01b600052604160045260246000fd5b60008060408385031215610ad957600080fd5b610ae283610a5e565b9150602083013567ffffffffffffffff80821115610aff57600080fd5b818501915085601f830112610b1357600080fd5b813581811115610b2557610b25610ab0565b604051601f8201601f19908116603f01168101908382118183101715610b4d57610b4d610ab0565b81604052828152886020848701011115610b6657600080fd5b8260208601602083013760006020848301015280955050505050509250929050565b602080825282518282018190526000919060409081850190868401855b82811015610bd557815180516001600160a01b031685528601511515868501529284019290850190600101610ba5565b5091979650505050505050565b60005b83811015610bfd578181015183820152602001610be5565b50506000910152565b6000602080830181845280855180835260408601915060408160051b870101925083870160005b82811015610c7357878503603f1901845281518051808752610c54818989018a8501610be2565b601f01601f191695909501860194509285019290850190600101610c2d565b5092979650505050505050565b60008251610c92818460208701610be2565b9190910192915050565b600181811c90821680610cb057607f821691505b602082108103610cd057634e487b7160e01b600052602260045260246000fd5b50919050565b601f82111561020657600081815260208120601f850160051c81016020861015610cfd5750805b601f850160051c820191505b81811015610d1c57828155600101610d09565b505050505050565b815167ffffffffffffffff811115610d3e57610d3e610ab0565b610d5281610d4c8454610c9c565b84610cd6565b602080601f831160018114610d875760008415610d6f5750858301515b600019600386901b1c1916600185901b178555610d1c565b600085815260208120601f198616915b82811015610db657888601518255948401946001909101908401610d97565b5085821015610dd45787850151600019600388901b60f8161c191681555b5050505050600190811b01905550565b634e487b7160e01b600052603260045260246000fd5b600060018201610e1a57634e487b7160e01b600052601160045260246000fd5b5060010190565b6000808354610e2f81610c9c565b60018281168015610e475760018114610e5c57610e8b565b60ff1984168752821515830287019450610e8b565b8760005260208060002060005b85811015610e825781548a820152908401908201610e69565b50505082870194505b5092969550505050505056fea2646970667358221220dc913d5c6a2e9d5c7e8054dcf23d6f686e22d7e67d8a8380844e9f3228000a3664736f6c63430008130033",
    "sourcePath": "c:/Users/abdul/OneDrive/Desktop/Major Project/MediLock/contracts/Upload.sol",
    "compiler": {
        "name": "solc",
        "version": "0.8.19+commit.7dd6d404"
    },
    "functionHashes": {
        "add(address,string)": "36d6da55",
        "allow(address)": "ff9913e8",
        "disallow(address)": "a9ed9cb8",
        "display(address)": "eb39113f",
        "retrieveAccountHash(address)": "0fdef729",
        "shareAccess()": "bc8bef81",
        "shareImage(address,string)": "24ee6ae5",
        "storeAccountHash(bytes32)": "1d3bbe84"
    },
    "gasEstimates": {
        "creation": {
            "codeDepositCost": "757800",
            "executionCost": "792",
            "totalCost": "758592"
        },
        "external": {
            "add(address,string)": "infinite",
            "allow(address)": "infinite",
            "disallow(address)": "infinite",
            "display(address)": "infinite",
            "retrieveAccountHash(address)": "2527",
            "shareAccess()": "infinite",
            "shareImage(address,string)": "infinite",
            "storeAccountHash(bytes32)": "22403"
        }
    }
}