{
  "_format": "hh-sol-artifact-1",
  "contractName": "Upload",
  "sourceName": "contracts/Upload.sol",
  "abi": [
    {
      "inputs": [
        {
          "internalType": "address",
          "name": "",
          "type": "address"
        }
      ],
      "name": "accountToSHA",
      "outputs": [
        {
          "internalType": "string",
          "name": "",
          "type": "string"
        }
      ],
      "stateMutability": "view",
      "type": "function"
    },
    {
      "inputs": [
        {
          "internalType": "address",
          "name": "_user",
          "type": "address"
        },
        {
          "internalType": "string",
          "name": "url",
          "type": "string"
        }
      ],
      "name": "add",
      "outputs": [],
      "stateMutability": "nonpayable",
      "type": "function"
    },
    {
      "inputs": [
        {
          "internalType": "address",
          "name": "user",
          "type": "address"
        }
      ],
      "name": "allow",
      "outputs": [],
      "stateMutability": "nonpayable",
      "type": "function"
    },
    {
      "inputs": [
        {
          "internalType": "address",
          "name": "user",
          "type": "address"
        }
      ],
      "name": "disallow",
      "outputs": [],
      "stateMutability": "nonpayable",
      "type": "function"
    },
    {
      "inputs": [
        {
          "internalType": "address",
          "name": "_user",
          "type": "address"
        }
      ],
      "name": "display",
      "outputs": [
        {
          "internalType": "string[]",
          "name": "",
          "type": "string[]"
        }
      ],
      "stateMutability": "view",
      "type": "function"
    },
    {
      "inputs": [
        {
          "internalType": "address",
          "name": "_account",
          "type": "address"
        }
      ],
      "name": "doesSHAExist",
      "outputs": [
        {
          "internalType": "bool",
          "name": "",
          "type": "bool"
        }
      ],
      "stateMutability": "view",
      "type": "function"
    },
    {
      "inputs": [
        {
          "internalType": "string",
          "name": "_sha",
          "type": "string"
        }
      ],
      "name": "saveSHA",
      "outputs": [],
      "stateMutability": "nonpayable",
      "type": "function"
    },
    {
      "inputs": [],
      "name": "shareAccess",
      "outputs": [
        {
          "components": [
            {
              "internalType": "address",
              "name": "user",
              "type": "address"
            },
            {
              "internalType": "bool",
              "name": "access",
              "type": "bool"
            }
          ],
          "internalType": "struct Upload.Access[]",
          "name": "",
          "type": "tuple[]"
        }
      ],
      "stateMutability": "view",
      "type": "function"
    },
    {
      "inputs": [
        {
          "internalType": "address",
          "name": "_user",
          "type": "address"
        },
        {
          "internalType": "string",
          "name": "url",
          "type": "string"
        }
      ],
      "name": "shareImage",
      "outputs": [],
      "stateMutability": "nonpayable",
      "type": "function"
    }
  ],
  "bytecode": "0x608060405234801561001057600080fd5b50611d4b806100206000396000f3fe608060405234801561001057600080fd5b50600436106100935760003560e01c80637689a35b116100665780637689a35b1461011c578063a9ed9cb81461014c578063bc8bef8114610168578063eb39113f14610186578063ff9913e8146101b657610093565b806324ee6ae5146100985780632732820d146100b457806336d6da55146100d05780635618bc77146100ec575b600080fd5b6100b260048036038101906100ad919061169b565b6101d2565b005b6100ce60048036038101906100c991906116f7565b6102de565b005b6100ea60048036038101906100e5919061169b565b610335565b005b61010660048036038101906101019190611740565b6103b1565b6040516101139190611788565b60405180910390f35b61013660048036038101906101319190611740565b610408565b604051610143919061182b565b60405180910390f35b61016660048036038101906101619190611740565b6104a8565b005b6101706107f8565b60405161017d9190611949565b60405180910390f35b6101a0600480360381019061019b9190611740565b610901565b6040516101ad9190611a77565b60405180910390f35b6101d060048036038101906101cb9190611740565b610ecc565b005b60018060003373ffffffffffffffffffffffffffffffffffffffff1673ffffffffffffffffffffffffffffffffffffffff16815260200190815260200160002060008473ffffffffffffffffffffffffffffffffffffffff1673ffffffffffffffffffffffffffffffffffffffff16815260200190815260200160002060006101000a81548160ff0219169083151502179055506001600460008473ffffffffffffffffffffffffffffffffffffffff1673ffffffffffffffffffffffffffffffffffffffff168152602001908152602001600020826040516102b59190611ad5565b908152602001604051809103902060006101000a81548160ff0219169083151502179055505050565b80600560003373ffffffffffffffffffffffffffffffffffffffff1673ffffffffffffffffffffffffffffffffffffffff1681526020019081526020016000209080519060200190610331929190611440565b5050565b6000808373ffffffffffffffffffffffffffffffffffffffff1673ffffffffffffffffffffffffffffffffffffffff168152602001908152602001600020819080600181540180825580915050600190039060005260206000200160009091909190915090805190602001906103ac929190611440565b505050565b600080600560008473ffffffffffffffffffffffffffffffffffffffff1673ffffffffffffffffffffffffffffffffffffffff16815260200190815260200160002080546103fe90611b1b565b9050119050919050565b6005602052806000526040600020600091509050805461042790611b1b565b80601f016020809104026020016040519081016040528092919081815260200182805461045390611b1b565b80156104a05780601f10610475576101008083540402835291602001916104a0565b820191906000526020600020905b81548152906001019060200180831161048357829003601f168201915b505050505081565b6000600160003373ffffffffffffffffffffffffffffffffffffffff1673ffffffffffffffffffffffffffffffffffffffff16815260200190815260200160002060008373ffffffffffffffffffffffffffffffffffffffff1673ffffffffffffffffffffffffffffffffffffffff16815260200190815260200160002060006101000a81548160ff02191690831515021790555060005b600260003373ffffffffffffffffffffffffffffffffffffffff1673ffffffffffffffffffffffffffffffffffffffff168152602001908152602001600020805490508110156106c7578173ffffffffffffffffffffffffffffffffffffffff16600260003373ffffffffffffffffffffffffffffffffffffffff1673ffffffffffffffffffffffffffffffffffffffff16815260200190815260200160002082815481106105f2576105f1611b4d565b5b9060005260206000200160000160009054906101000a900473ffffffffffffffffffffffffffffffffffffffff1673ffffffffffffffffffffffffffffffffffffffff1614156106b4576000600260003373ffffffffffffffffffffffffffffffffffffffff1673ffffffffffffffffffffffffffffffffffffffff168152602001908152602001600020828154811061068f5761068e611b4d565b5b9060005260206000200160000160146101000a81548160ff0219169083151502179055505b80806106bf90611bb5565b915050610540565b5060005b6000803373ffffffffffffffffffffffffffffffffffffffff1673ffffffffffffffffffffffffffffffffffffffff168152602001908152602001600020805490508110156107f4576000600460008473ffffffffffffffffffffffffffffffffffffffff1673ffffffffffffffffffffffffffffffffffffffff1681526020019081526020016000206000803373ffffffffffffffffffffffffffffffffffffffff1673ffffffffffffffffffffffffffffffffffffffff16815260200190815260200160002083815481106107a5576107a4611b4d565b5b906000526020600020016040516107bc9190611c92565b908152602001604051809103902060006101000a81548160ff02191690831515021790555080806107ec90611bb5565b9150506106cb565b5050565b6060600260003373ffffffffffffffffffffffffffffffffffffffff1673ffffffffffffffffffffffffffffffffffffffff168152602001908152602001600020805480602002602001604051908101604052809291908181526020016000905b828210156108f8578382906000526020600020016040518060400160405290816000820160009054906101000a900473ffffffffffffffffffffffffffffffffffffffff1673ffffffffffffffffffffffffffffffffffffffff1673ffffffffffffffffffffffffffffffffffffffff1681526020016000820160149054906101000a900460ff16151515158152505081526020019060010190610859565b50505050905090565b60603373ffffffffffffffffffffffffffffffffffffffff168273ffffffffffffffffffffffffffffffffffffffff1614806109c35750600160008373ffffffffffffffffffffffffffffffffffffffff1673ffffffffffffffffffffffffffffffffffffffff16815260200190815260200160002060003373ffffffffffffffffffffffffffffffffffffffff1673ffffffffffffffffffffffffffffffffffffffff16815260200190815260200160002060009054906101000a900460ff165b610a02576040517f08c379a00000000000000000000000000000000000000000000000000000000081526004016109f990611cf5565b60405180910390fd5b3373ffffffffffffffffffffffffffffffffffffffff168273ffffffffffffffffffffffffffffffffffffffff161415610b4b576000808373ffffffffffffffffffffffffffffffffffffffff1673ffffffffffffffffffffffffffffffffffffffff168152602001908152602001600020805480602002602001604051908101604052809291908181526020016000905b82821015610b40578382906000526020600020018054610ab390611b1b565b80601f0160208091040260200160405190810160405280929190818152602001828054610adf90611b1b565b8015610b2c5780601f10610b0157610100808354040283529160200191610b2c565b820191906000526020600020905b815481529060010190602001808311610b0f57829003601f168201915b505050505081526020019060010190610a94565b505050509050610ec7565b60008060008473ffffffffffffffffffffffffffffffffffffffff1673ffffffffffffffffffffffffffffffffffffffff1681526020019081526020016000208054905067ffffffffffffffff811115610ba857610ba7611570565b5b604051908082528060200260200182016040528015610bdb57816020015b6060815260200190600190039081610bc65790505b5090506000805b6000808673ffffffffffffffffffffffffffffffffffffffff1673ffffffffffffffffffffffffffffffffffffffff16815260200190815260200160002080549050811015610e1557600460003373ffffffffffffffffffffffffffffffffffffffff1673ffffffffffffffffffffffffffffffffffffffff1681526020019081526020016000206000808773ffffffffffffffffffffffffffffffffffffffff1673ffffffffffffffffffffffffffffffffffffffff1681526020019081526020016000208281548110610cba57610cb9611b4d565b5b90600052602060002001604051610cd19190611c92565b908152602001604051809103902060009054906101000a900460ff1615610e02576000808673ffffffffffffffffffffffffffffffffffffffff1673ffffffffffffffffffffffffffffffffffffffff1681526020019081526020016000208181548110610d4257610d41611b4d565b5b906000526020600020018054610d5790611b1b565b80601f0160208091040260200160405190810160405280929190818152602001828054610d8390611b1b565b8015610dd05780601f10610da557610100808354040283529160200191610dd0565b820191906000526020600020905b815481529060010190602001808311610db357829003601f168201915b5050505050838381518110610de857610de7611b4d565b5b60200260200101819052508180610dfe90611bb5565b9250505b8080610e0d90611bb5565b915050610be2565b5060008167ffffffffffffffff811115610e3257610e31611570565b5b604051908082528060200260200182016040528015610e6557816020015b6060815260200190600190039081610e505790505b50905060005b82811015610ebf57838181518110610e8657610e85611b4d565b5b6020026020010151828281518110610ea157610ea0611b4d565b5b60200260200101819052508080610eb790611bb5565b915050610e6b565b508093505050505b919050565b60018060003373ffffffffffffffffffffffffffffffffffffffff1673ffffffffffffffffffffffffffffffffffffffff16815260200190815260200160002060008373ffffffffffffffffffffffffffffffffffffffff1673ffffffffffffffffffffffffffffffffffffffff16815260200190815260200160002060006101000a81548160ff021916908315150217905550600360003373ffffffffffffffffffffffffffffffffffffffff1673ffffffffffffffffffffffffffffffffffffffff16815260200190815260200160002060008273ffffffffffffffffffffffffffffffffffffffff1673ffffffffffffffffffffffffffffffffffffffff16815260200190815260200160002060009054906101000a900460ff161561117f5760005b600260003373ffffffffffffffffffffffffffffffffffffffff1673ffffffffffffffffffffffffffffffffffffffff16815260200190815260200160002080549050811015611179578173ffffffffffffffffffffffffffffffffffffffff16600260003373ffffffffffffffffffffffffffffffffffffffff1673ffffffffffffffffffffffffffffffffffffffff16815260200190815260200160002082815481106110a4576110a3611b4d565b5b9060005260206000200160000160009054906101000a900473ffffffffffffffffffffffffffffffffffffffff1673ffffffffffffffffffffffffffffffffffffffff161415611166576001600260003373ffffffffffffffffffffffffffffffffffffffff1673ffffffffffffffffffffffffffffffffffffffff168152602001908152602001600020828154811061114157611140611b4d565b5b9060005260206000200160000160146101000a81548160ff0219169083151502179055505b808061117190611bb5565b915050610ff2565b50611310565b600260003373ffffffffffffffffffffffffffffffffffffffff1673ffffffffffffffffffffffffffffffffffffffff16815260200190815260200160002060405180604001604052808373ffffffffffffffffffffffffffffffffffffffff168152602001600115158152509080600181540180825580915050600190039060005260206000200160009091909190915060008201518160000160006101000a81548173ffffffffffffffffffffffffffffffffffffffff021916908373ffffffffffffffffffffffffffffffffffffffff16021790555060208201518160000160146101000a81548160ff02191690831515021790555050506001600360003373ffffffffffffffffffffffffffffffffffffffff1673ffffffffffffffffffffffffffffffffffffffff16815260200190815260200160002060008373ffffffffffffffffffffffffffffffffffffffff1673ffffffffffffffffffffffffffffffffffffffff16815260200190815260200160002060006101000a81548160ff0219169083151502179055505b60005b6000803373ffffffffffffffffffffffffffffffffffffffff1673ffffffffffffffffffffffffffffffffffffffff1681526020019081526020016000208054905081101561143c576001600460008473ffffffffffffffffffffffffffffffffffffffff1673ffffffffffffffffffffffffffffffffffffffff1681526020019081526020016000206000803373ffffffffffffffffffffffffffffffffffffffff1673ffffffffffffffffffffffffffffffffffffffff16815260200190815260200160002083815481106113ed576113ec611b4d565b5b906000526020600020016040516114049190611c92565b908152602001604051809103902060006101000a81548160ff021916908315150217905550808061143490611bb5565b915050611313565b5050565b82805461144c90611b1b565b90600052602060002090601f01602090048101928261146e57600085556114b5565b82601f1061148757805160ff19168380011785556114b5565b828001600101855582156114b5579182015b828111156114b4578251825591602001919060010190611499565b5b5090506114c291906114c6565b5090565b5b808211156114df5760008160009055506001016114c7565b5090565b6000604051905090565b600080fd5b600080fd5b600073ffffffffffffffffffffffffffffffffffffffff82169050919050565b6000611522826114f7565b9050919050565b61153281611517565b811461153d57600080fd5b50565b60008135905061154f81611529565b92915050565b600080fd5b600080fd5b6000601f19601f8301169050919050565b7f4e487b7100000000000000000000000000000000000000000000000000000000600052604160045260246000fd5b6115a88261155f565b810181811067ffffffffffffffff821117156115c7576115c6611570565b5b80604052505050565b60006115da6114e3565b90506115e6828261159f565b919050565b600067ffffffffffffffff82111561160657611605611570565b5b61160f8261155f565b9050602081019050919050565b82818337600083830152505050565b600061163e611639846115eb565b6115d0565b90508281526020810184848401111561165a5761165961155a565b5b61166584828561161c565b509392505050565b600082601f83011261168257611681611555565b5b813561169284826020860161162b565b91505092915050565b600080604083850312156116b2576116b16114ed565b5b60006116c085828601611540565b925050602083013567ffffffffffffffff8111156116e1576116e06114f2565b5b6116ed8582860161166d565b9150509250929050565b60006020828403121561170d5761170c6114ed565b5b600082013567ffffffffffffffff81111561172b5761172a6114f2565b5b6117378482850161166d565b91505092915050565b600060208284031215611756576117556114ed565b5b600061176484828501611540565b91505092915050565b60008115159050919050565b6117828161176d565b82525050565b600060208201905061179d6000830184611779565b92915050565b600081519050919050565b600082825260208201905092915050565b60005b838110156117dd5780820151818401526020810190506117c2565b838111156117ec576000848401525b50505050565b60006117fd826117a3565b61180781856117ae565b93506118178185602086016117bf565b6118208161155f565b840191505092915050565b6000602082019050818103600083015261184581846117f2565b905092915050565b600081519050919050565b600082825260208201905092915050565b6000819050602082019050919050565b61188281611517565b82525050565b6118918161176d565b82525050565b6040820160008201516118ad6000850182611879565b5060208201516118c06020850182611888565b50505050565b60006118d28383611897565b60408301905092915050565b6000602082019050919050565b60006118f68261184d565b6119008185611858565b935061190b83611869565b8060005b8381101561193c57815161192388826118c6565b975061192e836118de565b92505060018101905061190f565b5085935050505092915050565b6000602082019050818103600083015261196381846118eb565b905092915050565b600081519050919050565b600082825260208201905092915050565b6000819050602082019050919050565b600082825260208201905092915050565b60006119b3826117a3565b6119bd8185611997565b93506119cd8185602086016117bf565b6119d68161155f565b840191505092915050565b60006119ed83836119a8565b905092915050565b6000602082019050919050565b6000611a0d8261196b565b611a178185611976565b935083602082028501611a2985611987565b8060005b85811015611a655784840389528151611a4685826119e1565b9450611a51836119f5565b925060208a01995050600181019050611a2d565b50829750879550505050505092915050565b60006020820190508181036000830152611a918184611a02565b905092915050565b600081905092915050565b6000611aaf826117a3565b611ab98185611a99565b9350611ac98185602086016117bf565b80840191505092915050565b6000611ae18284611aa4565b915081905092915050565b7f4e487b7100000000000000000000000000000000000000000000000000000000600052602260045260246000fd5b60006002820490506001821680611b3357607f821691505b60208210811415611b4757611b46611aec565b5b50919050565b7f4e487b7100000000000000000000000000000000000000000000000000000000600052603260045260246000fd5b7f4e487b7100000000000000000000000000000000000000000000000000000000600052601160045260246000fd5b6000819050919050565b6000611bc082611bab565b91507fffffffffffffffffffffffffffffffffffffffffffffffffffffffffffffffff821415611bf357611bf2611b7c565b5b600182019050919050565b60008190508160005260206000209050919050565b60008154611c2081611b1b565b611c2a8186611a99565b94506001821660008114611c455760018114611c5657611c89565b60ff19831686528186019350611c89565b611c5f85611bfe565b60005b83811015611c8157815481890152600182019150602081019050611c62565b838801955050505b50505092915050565b6000611c9e8284611c13565b915081905092915050565b7f596f7520646f6e27742068617665206163636573730000000000000000000000600082015250565b6000611cdf6015836117ae565b9150611cea82611ca9565b602082019050919050565b60006020820190508181036000830152611d0e81611cd2565b905091905056fea26469706673582212207f9eaf51fc5965e31d654e6ad7108b39bff7c1c51d156e23ffbf74f8484d217864736f6c63430008090033",
  "linkReferences": {},
  "deployedLinkReferences": {}
}